:020000040800F2
:1000000030070020CD010008AD030008A50300085B
:10001000A903000875020008070600080000000098
:10002000000000000000000000000000D1030008F4
:100030007902000800000000AF030008BD040008BA
:10004000E7010008E7010008E7010008E7010008F0
:10005000E7010008E7010008E7010008E7010008E0
:10006000E7010008E7010008E7010008E7010008D0
:10007000E7010008E7010008E7010008E7010008C0
:10008000E7010008E7010008E7010008E7010008B0
:10009000E7010008E7010008E7010008E7010008A0
:1000A000E7010008E7010008E7010008E701000890
:1000B000E7010008E7010008E7010008E701000880
:1000C000E7010008E7010008E7010008E701000870
:1000D000E701000821050008E7010008E701000822
:1000E000E7010008E7010008E7010008E701000850
:1000F000E7010008E7010008E7010008E701000840
:10010000E7010008E7010008E7010008E70100082F
:10011000E7010008E7010008E7010008E70100081F
:10012000E7010008E7010008E7010008E70100080F
:1001300000F002F800F03AF80AA090E8000C8244BF
:100140008344AAF10107DA4501D100F02FF8AFF29C
:10015000090EBAE80F0013F0010F18BFFB1A43F0A5
:1001600001031847C8070000E8070000103A24BF41
:1001700078C878C1FAD8520724BF30C830C144BF0C
:1001800004680C607047000000230024002500264E
:10019000103A28BF78C1FBD8520728BF30C148BFEA
:1001A0000B6070471FB51FBD10B510BD00F033F8D0
:1001B0001146FFF7F7FF00F02BFA00F051F803B4F7
:1001C000FFF7F2FF03BC00F020FA00000948804767
:1001D00009480047FEE7FEE7FEE7FEE7FEE7FEE729
:1001E000FEE7FEE7FEE7FEE704480549054A064B41
:1001F00070470000C10400083101000830010020F0
:100200003007002030030020300300207047704783
:10021000704770477047754600F028F8AE460500F5
:100220006946534620F00700854618B020B5FFF711
:10023000DBFFBDE820404FF000064FF000074FF015
:1002400000084FF0000B21F00701AC46ACE8C009F4
:10025000ACE8C009ACE8C009ACE8C0098D467047FD
:100260000446AFF300802046FFF7A9FF004870471F
:10027000D000002000BFFEE77047002100E0491CCD
:100280008142FCD370472DE9F0410246002500264B
:10029000002000230024002791F803C00CF00F0574
:1002A00091F803C00CF0100CBCF1000F03D091F8D2
:1002B00002C04CEA050591F800C0BCF1000F31D036
:1002C000146800202BE04FF0010C0CFA00F3B1F899
:1002D00000C00CEA03069E4220D183004FF00F0CB1
:1002E0000CFA03F7BC4305FA03FC4CEA040491F84A
:1002F00003C0BCF1280F06D14FF0010C0CFA00FC32
:10030000C2F814C00AE091F803C0BCF1480F05D14F
:100310004FF0010C0CFA00FCC2F810C0401C082879
:10032000D1D31460B1F800C0BCF1FF0F34DD5468C4
:1003300000202EE000F1080C4FF0010808FA0CF341
:10034000B1F800C00CEA03069E4221D183004FF0B1
:100350000F0C0CFA03F7BC4305FA03FC4CEA040447
:1003600091F803C0BCF1280F05D100F1080C08FA80
:100370000CF8C2F8148091F803C0BCF1480F07D103
:1003800000F1080C4FF0010808FA0CF8C2F81080D0
:10039000401C0828CED35460BDE8F081416170470D
:1003A0000161704700BFFEE700BFFEE7704770477E
:1003B00029B1064A92690243044B9A6104E0034A58
:1003C00092698243014B9A6170470000001002401D
:1003D000704710B500F002F810BD00000CB5002009
:1003E000019000903348006840F480303149086043
:1003F00000BF3048006800F4003000900198401CB5
:100400000190009818B90198B0F5A06FF1D1294872
:10041000006800F4003010B10120009001E00020DD
:1004200000900098012843D12348006840F0100054
:10043000214908600846006820F00300086008466B
:10044000006840F0020008601A4840681949486096
:100450000846406848600846406840F4806048604C
:100460000846406820F47C1048600846406840F424
:10047000E81048600846006840F08070086000BFDF
:100480000C48006800F000700028F9D00948406866
:1004900020F00300074948600846406840F0020029
:1004A000486000BF0348406800F00C000828F9D1FC
:1004B0000CBD000000100240002002407047000008
:1004C00010B51348006840F0010011490860084663
:1004D0004068104908400E494860084600680E49C7
:1004E00008400B4908600846006820F48020086036
:1004F0000846406820F4FE0048604FF41F00886002
:10050000FFF767FF4FF000600449086010BD00006E
:10051000001002400000FFF8FFFFF6FE08ED00E0CB
:1005200010B540F225511D4800F03EF810B31B48AD
:1005300000F064F8C4B21A48008800F40040C8B95A
:100540001748008800F4804060B10A2C03D00020D6
:100550001349088020E01248008840F40040104908
:10056000088019E00D2C06D10D48008840F4804029
:100570000B49088010E00A480088C0F30D000949C3
:100580000C5407480088401C05490880084600882C
:10059000C72801DD0020088010BD000000380140A0
:1005A000040000200800002070B50246002400234B
:1005B0000025002040F66A16B14200D100BFC1F309
:1005C000421501F01F03012606FA03F3012D02D1A3
:1005D0009689334006E0022D02D1168A334001E0AD
:1005E000968A33400C12012606FA04F41688344029
:1005F00013B10CB1012000E0002070BD01468888D5
:10060000C0F30800704700BFFEE7014600BF704717
:10061000F8B5C24DC24E002401212420FFF7C8FEC8
:100620002020ADF8000010208DF8030003208DF885
:1006300002006946BB48FFF726FE2021B948FFF7B4
:10064000AFFE4020ADF8000010208DF8030003201D
:100650008DF802006946B348FFF715FE4021B14806
:10066000FFF79EFE1020ADF800008DF80300032078
:100670008DF802006946AB48FFF705FE1021A94836
:10068000FFF78EFE0420ADF8000010208DF8030067
:1006900003208DF802006946A248FFF7F4FD04210B
:1006A000A048FFF77DFE0820ADF8000010208DF86F
:1006B000030003208DF8020069469A48FFF7E3FD26
:1006C00008219848FFF76CFE0420ADF80000694649
:1006D0009548FFF7D8FD04219348FFF761FE68E0D5
:1006E00004219048FFF75AFE08218E48FFF756FE76
:1006F00010218C48FFF752FE20218A48FFF74EFE5A
:1007000040218848FFF74AFE20218648FFF748FE2F
:1007100040218448FFF744FE2846FFF7AEFD202124
:100720008048FFF73BFE2846FFF7A7FD20217D48C4
:10073000FFF736FE40217B48FFF730FE1021794855
:10074000FFF72EFE2846FFF798FD20217548FFF79A
:1007500025FE2846FFF791FD20217248FFF720FE75
:1007600010217048FFF71AFE04216E48FFF718FEAB
:100770002846FFF782FD20216A48FFF70FFE284632
:10078000FFF77BFD20216748FFF70AFE042165483B
:10079000FFF704FE08216348FFF702FE2846FFF733
:1007A0006CFD20215F48FFF7F9FD2846FFF765FD46
:1007B000641C032C94D304215A48FFF7EFFD082151
:1007C0005848FFF7EBFD10215648FFF7E7FD2021C1
:1007D0005448FFF7E3FD40215248FFF7DFFD84E076
:1007E00020215048FFF7DCFD10214E48FFF7D6FDD1
:1007F00040214C48FFF7D4FD3046FFF73EFD202155
:100800004848FFF7CBFD3046FFF737FD202145482C
:10081000FFF7C6FD40214348FFF7C0FD10214148C6
:10082000FFF7BEFD3046FFF728FD20213D48FFF7CA
:10083000B5FD3046FFF721FD20213A48FFF7B0FD16
:1008400010213848FFF7AAFD04213648FFF7A8FD1C
:100850003046FFF712FD20213248FFF79FFD30465A
:10086000FFF70BFD20212F48FFF79AFD04212D48AB
:10087000FFF794FD08212B48FFF792FD3046FFF764
:10088000FCFC20212748FFF789FD3046FFF7F5FCE7
:1008900020212448FFF784FD08212248FFF77EFD30
:1008A00004212048FFF77CFD3046FFF7E6FC2021BD
:1008B0001C48FFF773FD3046FFF7DFFC2021194885
:1008C000FFF76EFD04211748FFF768FD102115485A
:1008D000FFF766FD3046FFF7D0FC20211148FFF7F7
:1008E0005DFD3046FFF7C9FC641C0A2CFFF478AFAD
:1008F00004210C48FFF752FD08210A48FFF74EFD7E
:1009000010210848FFF74AFD20210648FFF746FD61
:1009100040210448FFF742FD0020F8BD404B4C0049
:1009200040420F0000080140001401404C0900083B
:1009300000000020080000006C01000854090008B5
:1009400008000020280700008801000800000000BF
:0409500000000000A3
:0400000508000131BD
:00000001FF
