:020000040800F2
:1000000060070020CD0100082D0600083505000816
:1000100029060008750200081913000800000000F6
:10002000000000000000000000000000B907000808
:100030007902000800000000A1060008E509000898
:10004000E7010008E7010008E7010008E7010008F0
:10005000E7010008E7010008E70100087D02000849
:10006000E7010008E7010008E7010008E7010008D0
:10007000E7010008E7010008E7010008E7010008C0
:10008000E7010008E7010008E7010008E7010008B0
:10009000E7010008E7010008E7010008E7010008A0
:1000A000E7010008E7010008E7010008E701000890
:1000B000490A0008E7010008E7010008E701000815
:1000C000E7010008E7010008E7010008E701000870
:1000D000E701000839100008E7010008E7010008FF
:1000E000E7010008E7010008E7010008E701000850
:1000F000E7010008E7010008E7010008E701000840
:10010000E7010008E7010008E7010008E70100082F
:10011000E7010008E7010008E7010008E70100081F
:10012000E7010008E7010008E7010008E70100080F
:1001300000F002F800F03AF80AA090E8000C8244BF
:100140008344AAF10107DA4501D100F02FF8AFF29C
:10015000090EBAE80F0013F0010F18BFFB1A43F0A5
:10016000010318477021000090210000103A24BFBD
:1001700078C878C1FAD8520724BF30C830C144BF0C
:1001800004680C607047000000230024002500264E
:10019000103A28BF78C1FBD8520728BF30C148BFEA
:1001A0000B6070471FB51FBD10B510BD00F033F8D0
:1001B0001146FFF7F7FF01F0E1F900F051F803B441
:1001C000FFF7F2FF03BC01F014F900000948804773
:1001D00009480047FEE7FEE7FEE7FEE7FEE7FEE729
:1001E000FEE7FEE7FEE7FEE704480549054A064B41
:1001F00070470000E9090008310100086001002093
:1002000060070020600300206003002070477047F3
:10021000704770477047754600F028F8AE460500F5
:100220006946534620F00700854618B020B5FFF711
:10023000DBFFBDE820404FF000064FF000074FF015
:1002400000084FF0000B21F00701AC46ACE8C009F4
:10025000ACE8C009ACE8C009ACE8C0098D467047FD
:100260000446AFF300802046FFF7A9FF004870471F
:100270000001002000BFFEE7704700002DE9F041BB
:100280000A2001F001F9022000F03EF868B30021D5
:100290004FF0804000F04EFE0121880700F0BDFCC9
:1002A00000BF0221124800F038F90028F9D10021DE
:1002B0004FF0804000F0B1FC4FF0804000F0C8FCEF
:1002C00000EB800000EB00104400204601F0AFFC82
:1002D00005460022074B01F0F5FA074601F018FA2F
:1002E00005490860022000F009F8BDE8F08100002F
:1002F000001001400000694004000020014908602E
:100300007047000014040140014600200022074B02
:100310001B6803EA0102054B14331B680B4013B141
:100320000AB1012000E000207047000000040140F5
:10033000002123498279002A3AD00A4612680368CC
:100340009A430B461A600A1D126803689A430B1DF4
:100350001A60027911440A6803681A430A60184A4D
:100360000832126803689A43154B08331A601A1D45
:10037000126803689A43124B0C331A604279102AB0
:100380000ED11A1F126803681A430D4B08331A6006
:100390001A1D126803681A43094B0C331A600DE0EA
:1003A0000749427911440A6803681A430A6005E064
:1003B000027911440A6803689A430A607047000092
:1003C0000004014030B500228B071C0F0F2303FAF5
:1003D00004F20B4B8C1053F824309343084C8D10CF
:1003E00044F8253023468C1053F824308C07240F12
:1003F00000FA04F42343024C8D1044F8253030BD3C
:10040000080001402DE9F0410246002500260020A9
:1004100000230024002791F803C00CF00F0591F889
:1004200003C00CF0100CBCF1000F03D091F802C017
:100430004CEA050591F800C0BCF1000F31D01468FA
:1004400000202BE04FF0010C0CFA00F3B1F800C0D3
:100450000CEA03069E4220D183004FF00F0C0CFAE9
:1004600003F7BC4305FA03FC4CEA040491F803C00B
:10047000BCF1280F06D14FF0010C0CFA00FCC2F8B9
:1004800014C00AE091F803C0BCF1480F05D14FF049
:10049000010C0CFA00FCC2F810C0401C0828D1D393
:1004A0001460B1F800C0BCF1FF0F34DD54680020C7
:1004B0002EE000F1080C4FF0010808FA0CF3B1F837
:1004C00000C00CEA03069E4221D183004FF00F0CBE
:1004D0000CFA03F7BC4305FA03FC4CEA040491F858
:1004E00003C0BCF1280F05D100F1080C08FA0CF884
:1004F000C2F8148091F803C0BCF1480F07D100F195
:10050000080C4FF0010808FA0CF8C2F81080401CE3
:100510000828CED35460BDE8F081024600209368DD
:100520000B400BB1012000E0002070474161704793
:100530000161704700BFFEE708B50121082000F007
:10054000C1F80220ADF8000048208DF80300032018
:100550008DF8020069460248FFF754FF08BD00000D
:10056000000C014008B501210C2000F0ABF8802000
:10057000ADF8000048208DF8030003208DF802003C
:1005800069460848FFF73EFF0120ADF8000048200B
:100590008DF8030003208DF8020069460248FFF73A
:1005A00031FF08BD00080140000C014008B50121E1
:1005B0001C2000F087F80420ADF8000048208DF8DA
:1005C000030069461548FFF71DFF0820ADF800003D
:1005D00010208DF8030003208DF8020069460F48B3
:1005E000FFF710FF4020ADF8000010208DF8030049
:1005F00003208DF8020069460948FFF703FF4020F9
:10060000ADF8000010208DF8030003208DF80200E3
:1006100069460448FFF7F6FE08BD000000100140DF
:10062000000C01400008014000BFFEE770470000D9
:1006300070B5002100230F22C47804B3154C246840
:1006400004F4E064C4F5E064210AC1F10403CA4083
:10065000447804FA03F184781440214309010E4CD4
:100660000678A155047804F01F050124AC400578F4
:100670006D11AD0005F1E025C5F8004109E00478F1
:1006800004F01F050124AC40044D0678761145F8AE
:10069000264070BD0CED00E000E400E080E100E0E9
:1006A0007047000029B1064AD2690243044BDA615F
:1006B00004E0034AD2698243014BDA6170470000CB
:1006C0000010024029B1064A92690243044B9A6124
:1006D00004E0034A92698243014B9A61704700002B
:1006E0000010024030B500210022002400232D4DCF
:1006F0006D6805F00C0121B1042905D0082923D12A
:1007000005E0294D056022E0274D05601FE0254DDD
:100710006D6805F47012234D6D6805F48034022570
:1007200005EB92421CB9214D554305600BE01D4D70
:100730006D6805F400351DB11C4D5543056002E0A0
:10074000194D5543056002E0174D056000BF00BF1D
:10075000144D6D6805F0F0010909154D6B5C0568D5
:10076000DD4045600F4D6D6805F4E061090A104DEC
:100770006B5C4568DD4085600A4D6D6805F460512D
:10078000C90A0B4D6B5C4568DD40C560054D6D6861
:1007900005F44041890B074D6B5CC568B5FBF3F56B
:1007A000056130BD0010024000127A0000093D00D2
:1007B0000E0000201E000020704700002DE9F14FC0
:1007C00082B0029801F03EFC804600220F4B01F0FF
:1007D00045FA064600220E4B01F074F8044600224A
:1007E0000C4B00F0C7FF824601F0F4F980B2019093
:1007F00001F090FC0290029801F06CFC84B221465A
:10080000054800F090FBBDE8FE8F00000000494065
:100810000000224000206F40000C00402DE9FC4702
:1008200082460C46642C00DB642414F1640F01DC66
:100830006FF06304204601F0FAF921F00041074609
:1008400000221F4B01F00AFA054600221D4B01F061
:1008500003FBCDE9000101F08DF90FFA80F9BAF13F
:10086000000F03D0BAF1010F26D112E01FFA89F16F
:10087000154800F05AFB002C04DD10211348FFF747
:1008800055FE05E0002C03DA10211048FFF750FE5A
:1008900012E01FFA89F10C4800F049FB002C04DD3E
:1008A00080210B48FFF744FE05E0002C03DA80218D
:1008B0000748FFF73BFE00BF00BFBDE8FC87000014
:1008C000000052400021BC400008004000080140E8
:1008D000000C014010B500F001F810BD0CB500206F
:1008E000019000903348006840F48030314908603E
:1008F00000BF3048006800F4003000900198401CB0
:100900000190009818B90198B0F5A06FF1D129486D
:10091000006800F4003010B10120009001E00020D8
:1009200000900098012843D12348006840F010004F
:10093000214908600846006820F003000860084666
:10094000006840F0020008601A4840681949486091
:100950000846406848600846406840F48060486047
:100960000846406820F47C1048600846406840F41F
:10097000E81048600846006840F08070086000BFDA
:100980000C48006800F000700028F9D00948406861
:1009900020F00300074948600846406840F0020024
:1009A000486000BF0348406800F00C000828F9D1F7
:1009B0000CBD00000010024000200240042808D1B5
:1009C0004FF0E021096941F004014FF0E02211618C
:1009D00007E04FF0E021096921F004014FF0E02227
:1009E000116170477047000010B51348006840F06F
:1009F00001001149086008464068104908400E4946
:100A00004860084600680E4908400B4908600846DF
:100A1000006820F4802008600846406820F4FE004A
:100A200048604FF41F008860FFF754FF4FF00060EC
:100A30000449086010BD0000001002400000FFF8EB
:100A4000FFFFF6FE08ED00E010B50121880700F079
:100A500002F918B10121880700F0DCF810BD000090
:100A600030B589B005460C4601210420FFF71AFE77
:100A700001210C20FFF726FE8020ADF804000320A2
:100A80008DF8060010208DF8070001A93048FFF707
:100A9000B9FC4FF48070ADF8040003208DF8060017
:100AA00018208DF8070001A92948FFF7ABFC10209A
:100AB000ADF8040003208DF8060010208DF8070023
:100AC00001A92448FFF79EFC4FF40070ADF8040024
:100AD00003208DF8060018208DF8070001A91C4896
:100AE000FFF790FCADF81C50ADF818400020ADF8B1
:100AF0001E00ADF81A0006A9174800F01DFA702074
:100B0000ADF808000120ADF80A000020ADF80E0095
:100B1000ADF8100002A9104800F060F902A90E48D3
:100B200000F0B6F901210C4800F083F808210A48CA
:100B300000F0A4F90821084800F0E8F9012106486E
:100B400000F05CF80121044800F067F809B030BDFE
:100B5000000C0140000801400008004030B589B099
:100B600005460C4601210820FFF79CFD01210420C9
:100B7000FFF7A8FD0120ADF8200018208DF8230014
:100B800003208DF8220008A91A48FFF73BFCADF8B6
:100B90001850ADF814400020ADF81A00ADF816005A
:100BA00005A9154800F0C8F96020ADF8040001203F
:100BB000ADF806000020ADF80A00ADF80C0001A960
:100BC0000D4800F063F801210B4800F032F80821CD
:100BD000094800F0A7F801A9074800F0ADF8012185
:100BE000054800F00BF80121034800F016F809B0A1
:100BF00030BD000000080140000C004021B1028817
:100C000042F08002028004E002884FF67F731A40AF
:100C100002807047CA430282704721B1028842F0C5
:100C20000102028004E002884FF6FE731A4002803F
:100C3000704731B1B0F8442042F40042A0F844209B
:100C400005E0B0F84420C2F30E02A0F8442070473B
:100C50000146888C704730B50246002000230024EE
:100C6000158A05EA0103958905EA010413B10CB15F
:100C7000012000E0002030BD1AB183890B4383813D
:100C800002E083898B4383817047000070B50024A4
:100C900000220023058C4FF6FE7635400584028C39
:100CA0008388048B4FF68F752C40B51E2C400D8821
:100CB0002C43751E2A400D892A434D882A43144D22
:100CC000A8420BD0134DA84208D0134DA84205D01E
:100CD000124DA84202D0124DA84213D14FF6F7751B
:100CE0002A404D892A434FF6FB752A408D882A43B6
:100CF0004FF6FF652B404FF6FF552B408D892B4358
:100D0000CD892B4383800483CD888586028470BD82
:100D1000002C0140003401400040014000440140EB
:100D2000004801400A460021018B4FF6F773194035
:100D3000114301837047000070B500240022002396
:100D4000058C4FF6EF7635400584028C8388048B42
:100D500048F6FF752C404FF6FF452C400D884FF6A6
:100D6000FF7606EA05252C434FF6DF752A400D89EC
:100D700006EA05152A434D8806EA05152A43154D4E
:100D8000A84202D0144DA8421DD14FF67F752A40CB
:100D90004D894FF6FF7606EA05152A434FF6BF75D3
:100DA0002A408D8806EA05152A434FF6FF352B4069
:100DB0004FF2FF752B408D8906EA85052B43CD89BF
:100DC00006EA85052B4383800483CD88058702844A
:100DD00070BD0000002C01400034014070B50024BB
:100DE00000220023058C4FF6FF6635400584028CF7
:100DF0008388848B4FF68F752C404FF6FC752C4002
:100E00000D882C434FF6FF552A400D894FF6FF768B
:100E100006EA05252A434D8806EA05252A43154D8D
:100E2000A84202D0144DA8421DD14FF2FF752A40AE
:100E30004D894FF6FF7606EA05252A434FF6FF3522
:100E40002A408D8806EA05252A434EF6FF752B4079
:100E50004DF6FF752B408D8906EA05152B43CD898C
:100E600006EA05152B4383808483CD888587028419
:100E700070BD0000002C0140003401400A460021F2
:100E8000818B4FF6F773194011438183704700003F
:100E900070B5002200230024058C4EF6FF76354005
:100EA0000584038C8488828B48F6FF752A404FF6B0
:100EB000FF452A400D884FF6FF7606EA05252A43AE
:100EC0004DF6FF752B400D8906EA05352B434D88FD
:100ED00006EA05352B430B4DA84202D00A4DA84225
:100EE00008D14BF6FF752C408D894FF6FF7606EA48
:100EF00085152C4384808283CD88A0F840500384DC
:100F000070BD0000002C0140003401400A46002161
:100F1000818B4FF2FF7319404FF6FF7303EA0223F0
:100F20001943818370478186704781877047A0F895
:100F30004010704781847047002202881D4B984200
:100F40000ED01D4B98420BD0B0F1804F08D01B4BF8
:100F5000984205D01A4B984202D01A4B984204D1BD
:100F60004FF68F731A404B881A43174B984207D09D
:100F7000164B984204D04FF6FF431A40CB881A43D1
:100F800002808B8883850B8803850A4B98420BD09F
:100F9000094B984208D00E4B984205D00D4B984211
:100FA00002D00D4B984201D10B7A03860123838234
:100FB00070470000002C0140003401400004004054
:100FC00000080040000C00400010004000140040E9
:100FD0000040014000440140004801407FB5044604
:100FE0000D4601210846FFF75DFB41F28830ADF860
:100FF000080041F61F40ADF804000020ADF80A00DB
:10100000ADF8060001A94FF08040FFF795FF0122DF
:1010100041218807FFF730FE1C208DF800000020DA
:101020008DF8010003208DF8020001208DF80300E7
:101030006846FFF7FDFA7FBD10B540F225511D4807
:1010400000F04AF810B31B4800F002F9C4B21A4885
:10105000008800F40040C8B91748008800F48040B8
:1010600060B10A2C03D000201349088020E0124808
:10107000008840F400401049088019E00D2C06D18A
:101080000D48008840F480400B49088010E00A4871
:101090000088C0F30D0009490C5407480088401C23
:1010A0000549088008460088C72801DD002008801F
:1010B00010BD0000003801400C0000203800002066
:1010C00021B1828942F40052828104E082894DF686
:1010D000FF731A408281704770B5024600240023D6
:1010E0000025002040F66A16B14200D100BFC1F3CE
:1010F000421501F01F03012606FA03F3012D02D168
:101100009689334006E0022D02D1168A334001E071
:10111000968A33400C12012606FA04F416883440ED
:1011200013B10CB1012000E0002070BDF0B5034602
:10113000002400260025002040F66A17B94200D19D
:1011400000BF1846C1F3421401F01F06012707FA39
:1011500006F5012C01D10C3004E0022C01D1103035
:1011600000E014301AB107682F43076002E00768F7
:10117000AF430760F0BD00002DE9F04786B005469B
:101180000E460024A24600BFA1460027B08900B148
:1011900000BF2F462C8A4CF6FF700440F0880443B1
:1011A0002C82AC894EF6F3100440B0883189084394
:1011B000718908430443AC81AC8A4FF6FF40044078
:1011C000B0890443AC8201A8FFF78CFA1F4887421C
:1011D00002D1DDF810A001E0DDF80CA0A88900F430
:1011E000004040B10AEBCA0000EB0A103168490028
:1011F000B0FBF1F807E00AEBCA0000EB0A10316817
:101200008900B0FBF1F86420B8FBF0F0040120097C
:10121000642101FB1089A88900F4004040B132200C
:1012200000EBC900B0FBF1F000F00700044308E058
:10123000322000EB09106421B0FBF1F000F00F0048
:1012400004432C8106B0BDE8F0870000003801405F
:1012500001468888C0F30800704700001FB50121CF
:101260001120FFF72FFA0120ADF80C0010208DF8A7
:101270000F0003208DF80E0003A91748FFF7C2F8EE
:101280000220ADF80C0028208DF80F0003A91248A9
:10129000FFF7B8F801210220FFF794F8022001902F
:1012A00000208DF8080008208DF8090001208DF835
:1012B0000A0001A8FFF73CF807208DF80000022083
:1012C0008DF801008DF8020001208DF803006846BA
:1012D000FFF7AEF91FBD00000010014070B50121FD
:1012E0000A48FFF725F9142000F0CEF8012107483D
:1012F000FFF71CF906490748006800F01FFF054684
:1013000000F0CCFE0446204670BD000000100140F5
:10131000000020410400002000BFFEE770B5044635
:101320000D4600210120FFF779FA21460020FFF742
:1013300075FAA8B200F082F870BD70B504460D468B
:10134000604246B231460120FFF768FA00210846A4
:10135000FFF764FAA8B200F071F870BD70B50446EA
:101360000D4621460120FFF759FA21460020FFF7DC
:1013700055FAA8B200F062F870BD70B504460D468B
:10138000604246B221460120FFF748FA314600206C
:10139000FFF744FAA8B200F051F870BD10B504464A
:1013A00000210120FFF73AFA00210846FFF736FA3C
:1013B00010210548FFF7BAF880210448FFF7B6F876
:1013C000A0B200F03BF810BD00080140000C014045
:1013D00070B504460D46604246B231460120FFF723
:1013E0001DFA21460020FFF719FAA8B200F026F8EE
:1013F00070BD00BF7047000010B56FF00400FFF72C
:10140000DDFA0A4800680A49B0FBF1F009490870A2
:101410000846007800EB4001C1EBC0104FF6FF71A9
:1014200001EAC0000449088010BD0000240000202B
:1014300000127A0000000020020000200146114A3C
:1014400012884A434FF0E0235A6100229A611A46FB
:10145000126942F001021A6100BF4FF0E0221069E8
:1014600000F001021AB100F48032002AF5D04FF0EA
:10147000E022126922F001024FF0E0231A610022FB
:101480009A617047020000200146114A12784A43CF
:101490004FF0E0235A6100229A611A46126942F025
:1014A00001021A6100BF4FF0E022106900F0010252
:1014B0001AB100F48032002AF5D04FF0E022126910
:1014C00022F001024FF0E0231A6100229A61704776
:1014D0000000002010B50448FFF770F96420FFF702
:1014E000ADFFFFF7FBFE10BD0000B44210B50421B4
:1014F0001A48FFF712F8044604E004211748FFF7E2
:101500000CF8044604211548FFF707F80028F4D02A
:101510001CE00A20FFF792FF04211048FEF7FDFFB0
:101520000446012C0ED108210C48FFF701F803E016
:1015300008210A48FEF7FAFF04210848FEF7EDFFEC
:1015400020B9F5E708210548FEF7F0FF042103481C
:10155000FEF7E3FF0028DCD110BD000000100140C1
:1015600010B50548FFF72AF94FF49670FFF766FFAC
:10157000FFF7B4FE10BD000000002F43FFF73CFF53
:10158000FFF714F8FEF7EEFFFEF7D6FF41F61F4116
:1015900041F28830FFF722FDFFF760FE4FF4E130A3
:1015A00000F066F8002141F61F40FFF759FA8F213D
:1015B00042F20F70FFF7D2FA4FF4FA70FFF7EEFE27
:1015C000FFF794FF45E0FFF785FF04463C2C3CDA2B
:1015D000002C3ADD4FF4FA70FFF7E0FE4FF4FA7199
:1015E0003C20FFF7CAFE4FF47A70FFF7D7FEFFF7F3
:1015F000B7FF05464FF4FA70FFF720FF00F02AF816
:1016000006464FF4FA70FFF719FF3C2D07DA3C2E1F
:1016100005DA4FF4FA713C20FFF7A0FE19E0B5425D
:1016200009DD4FF42F713C20FFF778FE4FF4FA707C
:10163000FFF7B4FE0DE04FF42F713C20FFF77DFE65
:101640004FF4FA70FFF7AAFE03E00A213C20FFF7EF
:10165000BFFEB8E710B50548FFF7B0F84FF4967035
:10166000FFF7ECFEFFF73AFE10BD00000000A040BF
:1016700010B586B00446012144F20400FFF722F8B9
:101680004FF40070ADF8140003208DF816001820F8
:101690008DF8170005A91C48FEF7B4FE4FF48060D2
:1016A000ADF8140004208DF8170005A91648FEF7C0
:1016B000A9FE25208DF8000003208DF801008DF88B
:1016C000020001208DF803006846FEF7B1FF019487
:1016D0000020ADF80800ADF80A00ADF80C00ADF838
:1016E00010000C20ADF80E0001A90848FFF744FDDA
:1016F000012240F225510548FFF718FD012103485A
:10170000FFF7DEFC06B010BD0008014000380140C4
:1017100021F00042A2F16052B2F5801F01F00043B7
:1017200028BFD2F17F6C0BD95FEA001C43EAC202EA
:1017300042EB507018BF704728BF20F0010070477F
:10174000B2F5801FBCBF184670474FEA410C1CF52C
:10175000001F02D2084600F0B8BD70B500F028FBAB
:1017600000000089FFF7F6BF4FF00040A0F58000B1
:101770007047000010B591EA030F48BF83F00043A3
:1017800000F17E83841A71EB030C05D2121943EB2E
:101790000C03001B61EB0C01DFF824E14FEA11544C
:1017A000A4EB135C1EEA430F18BF9EEA445F73D09C
:1017B00023EA0E03DCF1200E21EA045143F48013E6
:1017C00032D322FA0CFE10EB0E0023FA0CFE41EB92
:1017D0000E01CCF1200E03FA0EFE10EB0E0051F1BB
:1017E0000001B1F5801FCCF1200E32D201EB045183
:1017F00012FA0EF2BDE8104058BF7047401C38BFC7
:101800005FEA420218BF7047002814BF20F00100B1
:1018100041F100014FEA410313F5001F38BF704743
:10182000A1F1C04100F012BB012A43EB0302ACF16D
:10183000200CDCF11F0E32BF4FF0000E23FA0CF328
:1018400010EB030041EB0451B4EB115FD0D0A1EBDE
:10185000045101F5801149085FEA300001EB0451A1
:101860000ED350F1000038BF12FA0EFE08D1BDE8C9
:101870001040C9E7401C38BF5FEA4202CAD1C3E743
:10188000BDE810404FEA410313F5001F38BF704711
:10189000A1F1C04100F0DABA9EEA445F08D011EA33
:1018A0005E0FBDE8104004BF01F00041002070470A
:1018B000BDE8104070B500F07BFA00BF64FBBE3E8F
:1018C0000000E0FF2DE9C04130B4DFF8A0C23CEADF
:1018D000111418BF3CEA131400F0EC8081EA0305F0
:1018E0001CEA111444EAD57418BF1CEA131500F061
:1018F000C780A4EB05044FF0004545EAC12145EA45
:10190000C32341EA505143EA525304F17F74994290
:1019100004F500344FEAC0204FEAC22208BF9042CB
:1019200000F09C804FEA13650FF24016765D4FEA97
:10193000134506FB05F7C7F1807706FB07F74FEA6B
:10194000D737A7FB03687642C8F58038A7FB06CED9
:1019500038BFA8F1010807FB08E64FF0000EA6FB10
:10196000028CE6FB03CEDCF1000CCEF1004E38BF5A
:10197000AEF1010EA6FB0C584FF000074FF000052A
:10198000E6FB0E87A1FB08C6A0FB07CE16EB0E06F2
:1019900045F10005E1FB076515F1E04E7EBFA4F5BA
:1019A00080345FEA46066D4116F1800745F1000577
:1019B0004FEA17274FEA066647EA0567A6F1DE46B3
:1019C000B6F1805F4FEA15251FD9384624F0010C87
:1019D00005EBC471BCF1FE6F01EB0C1102D8F0BC39
:1019E000BDE8008124425CBF01F5801E9EEAC47FF1
:1019F00002D4F0BCBDE80081244238D4F0BCA1F18F
:101A0000C041BDE8004100F021BA4FEAD22242EACB
:101A100043524FEAD323A7FB02864FEAD02040EA85
:101A2000415007FB03661EEA0E0F4FEAD12105FB6A
:101A3000026658BFA6EB0056B6EB00564FEA520EB0
:101A40004EEAC37E18EB0E0E56EB530EBDD518EBC7
:101A500002085E417F1C55F10005B6E74FF4801582
:101A60004FF000074FF000064FF00008ADE7F0BC64
:101A70004FF0000001F1C04101F00041BDE80081DC
:101A800011EA0C1F0CEA131500D00CE013EA0C1F2E
:101A900000F025804FF00000F0BC81EA030101F066
:101AA0000041BDE80081F0BCBDE8004181EA0301CE
:101AB00000F0CCB9F0BCBDE8004170B500F078F999
:101AC000097EFC3E00F007B881EA03014FF00000F8
:101AD00001F00041704781EA030100F0B7B9F0BCA2
:101AE000BDE800414FF0000021497047FFFDFBF9C0
:101AF000F7F5F4F2F0EEEDEBE9E8E6E4E3E1E0DE41
:101B0000DDDBDAD8D7D5D4D3D1D0CFCDCCCBCAC8B2
:101B1000C7C6C5C4C2C1C0BFBEBDBCBBBAB9B8B7D9
:101B2000B6B5B4B3B2B1B0AFAEADACABAAA9A8A8CC
:101B3000A7A6A5A4A3A3A2A1A09F9F9E9D9C9C9B9A
:101B40009A99999897979695959493939291919045
:101B50008F8F8E8E8D8C8C8B8B8A898988888787D6
:101B60008685858484838382828181800000FF074B
:101B70000000F87F4FEA41034FEA5353A3F5806317
:101B8000D3F11E03C8BFD3F1210C0CDD4FF000428E
:101B900042EAC12242EA505232FA03FC8CEAE17C6A
:101BA000ACEBE1707047102BC4BF0020704703F509
:101BB000787CBCF1FF3F04D06FF0004282EA210044
:101BC000704770B500F0F4F8499224800020704707
:101BD000F2E700004FEA1153A3F58063D3F11E032F
:101BE000A8BFD3F1200C08DB4FF0004242EAC1222B
:101BF00052EA505232FA03F0704709420BD4102BCC
:101C0000C4BF0020704703F5787CBCF1FF3F05D0CE
:101C10004FF0FF3070474FF00000704770B500F094
:101C2000C7F800BF4992248000207047F0E710F009
:101C3000004248BF4042B0FA80F310FA03F10AD0E4
:101C4000C3F11D0303F580634FEA415002EB0352D9
:101C500002EBD12170474FF000007047DFF848C118
:101C600070B51CEA111E1EBF1CEA13159EEA0C0F6C
:101C700095EA0C0F00F06F8081EA030423EA4C130D
:101C80004EEAD47E21EA4C1141F4801143F48013D2
:101C9000AE44A1FB024CA0FB0365AEF17F7E36197A
:101CA00055EB0C05A1FB034C4CF10003A0FB021CFF
:101CB00016EB0C06654153F10003094218BF46F0CC
:101CC000010613F4007F0BD14FEA03314FEA0530D0
:101CD000340341EA155140EA16506FF003020AE05E
:101CE0004FEAC3214FEAC520F40241EA555140EAC8
:101CF00056506FF0020202EB2E4201EB025585EACC
:101D0000CE710AD05FEA440C18BF24F0004450F1B1
:101D1000000041F1000120EAD47040F2FE7C6245EF
:101D200000D270BDA84214BF4FF080444FF0404431
:101D3000002E08BF0024BEF1806FA8BFA1F1C041F2
:101D4000BDE8704080F282804FF0000001F1C04198
:101D500001F0004170479EEA0C0F0CEA131518BF02
:101D600095EA0C0F06D04FF0000081EA030E0EF04A
:101D7000004170BD00F01CF88900013E00F007B87A
:101D800000F009B84FEA430C5FEA5C5C08D081EAD6
:101D9000030100F05BB84FEA410C5FEA5C5CF6D1EE
:101DA0004FF00000014970470000FF070000F87F76
:101DB0000EF1020E2EF0030E5EF8046B364205D4CF
:101DC000012A43EB030515F5001F12D8012841EB4A
:101DD000010C1CF5001F0CD80ED14FEAD17C15F573
:101DE000001F0CEB4C0C0CF1020C08BF4CEBD37C2D
:101DF00004E04FF0080C01E04FEAD37C0CEB4C05FB
:101E000026FA05F606F00706B6F1040C06D20EEB2C
:101E1000860CBDE870404CF0010C6047DFE80CF028
:101E2000090B02024FF000414FF00000A1F5002124
:101E300070BD19461046012851EB010418BFD4F5B6
:101E4000001484BF002001F0004170BD0808A0F517
:101E500000114FEA3101704791EA030F10B581F08C
:101E600000413FF58FAC83F0004300F009B800005B
:101E700010B591EA030F48BF83F000433FF582ACF1
:101E8000841A71EB030C07D212198CF0004C43EB4F
:101E90000C03001B61EB0C01DFF8A4E14FEA1154C5
:101EA000A4EB135C1EEA430F18BF9EEA445F00F0E8
:101EB000B08023EA6E03524221EA0451C3EB6E0361
:101EC00038BF5B1EDCF1200E25D322FA0CFE10EB8E
:101ED0000E0043FA0CFE41EB0E01CCF1200E03FA8A
:101EE0000EFE10EB0E0051F10001CCF1200E29D4B2
:101EF00012FA0EF201EB0451BDE8104058BF7047D2
:101F0000401C1CBFB2F1004F704700280CBF491C99
:101F100020F00100704712EB020E43EB030218BFE2
:101F20004FF0010E4EEA4202ACF1200CDCF11E0E25
:101F300054D943FA0CFE10EB0E0051F1FF31CCF1F5
:101F40001E0ED5D50EF1010E12FA0EFE404141EBE8
:101F5000010101EB445C5FEA5C5C10D910EBDE70C0
:101F600001EB045138BFBEF1004FBDE8104018BF6F
:101F7000704700280CBF491C20F00100704730D288
:101F80004FEAD42C11F5001124F400641BD0B1FAEF
:101F900081F20B3AA41AA41ED2F12003914030FA28
:101FA00003F31943904001EBCC71002C01EB045179
:101FB000BDE81040A8BF704701F1C0414FF00000DC
:101FC00001F000417047B0FA80F310FA03F100D13C
:101FD00010BDE41A173C4805C90AE4E701EB0451B7
:101FE00010BD491001EB0451BDE810404FEA30002C
:101FF00002E04FF0000170474A0008BF0042F8D0ED
:10200000B2F5001F28BF704701F000414FF00000FB
:1020100070479EEA445F07D011EA5E0FBDE81040AA
:1020200004BF002100207047BDE8104070B5FFF7E5
:10203000BFFE00BF40DFF63E83F000411046704710
:102040000000E0FF43004FEAD30C4FEA3C0C434052
:102050001FBF40070CF1605113F0FE4F70471CF09A
:10206000006F03D100200CF0004170470CF00043DA
:1020700043EA507010B540EACC0000F0E0F800BF31
:10208000000000924FEA0001FFF7E0BE4FF0004170
:102090004FF00000A1F500217047000041000B0E39
:1020A000D3F19E0208D950F400034FEA032323FA28
:1020B00002F048BF4042704710B500F0C0F800BFC2
:1020C00049922480002070476FF0004282EA20008D
:1020D00070470000C10DD1F19E0206DB4FEA0023DC
:1020E00043F0004323FA02F07047004207D54FEA5D
:1020F0004001B1F1FE4F02D24FF00000704710B521
:1021000000F09DF849922480002070476FEA20007B
:1021100070470000B0FA80F310FA03F2C3F19D0398
:102120000AD0D90501EB1220530638BF704700F1E1
:10213000010008BF20F00100704700004FF47F0C41
:102140001CEAD0121EBF1CEAD11392EA0C0F93EACC
:102150000C0F00F0478090EA010F48BF42F48072F4
:102160004FF0004C4CEA00204CEA012102EB030244
:10217000A0FB0113A2F50002002918BF43F00103E0
:102180005B0028BF4FEA330342EB22425FEA132C85
:102190004CEBC2502EBFBCEB436FB2F57C0F7047C7
:1021A0004FEA036CBCF1004F08BF20F00100B2F50C
:1021B0007C0F38BF70470BD582F0FF0212F5803FCD
:1021C000C8BF704700F1C040D8BF00F00040704762
:1021D00000F5000C5FEA4C0C48BF7047B0F1C040FE
:1021E00000F073B890EA010F0CEAD11348BF42F433
:1021F0008072624538BF634504D280EA010000F076
:102200000040704710B500F01AF800BF8900013E89
:1022100000F007B800F009B85FEA410C5FEA1C6CF7
:1022200008D080EA010000F050B85FEA400C5FEA95
:102230001C6CF6D14FF00040A0F5800070470EF105
:10224000020E2EF0030E5EF8044B244204D44FEA33
:102250004102B2F17F4F11D84FEA4003B3F17F4FF3
:102260000CD80ED14FEAD07CB2F17F4F0CEB4C0C66
:102270000CF1020C08BF4CEBD17C04E04FF0080CD1
:1022800001E04FEAD17C0CEB4C0324FA03F404F098
:102290000704B4F1040C06D20EEB840CBDE8104028
:1022A0004CF0010C6047DFE80CF0070802024FF029
:1022B0000040A0F5800010BD0846420018BFD2F1D2
:1022C000807288BF00F0004010BDFF2141EAD0506D
:1022D000C0057047F422000800000020380000000C
:1022E0006C0100082C23000838000020280700009B
:1022F000880100080000000000000000000000004D
:1023000000000000000001020304010203040607AC
:10231000080902040608000000A24A0400000000A8
:0C23200000000000010203040607080989
:0400000508000131BD
:00000001FF
