:020000040800F2
:1000000068060020CD010008E9030008E1030008AC
:10001000E50300087F020008ED070008000000006B
:10002000000000000000000000000000D9040008EB
:10003000830200080000000095040008050600087F
:10004000E7010008E7010008E7010008E7010008F0
:10005000E7010008E7010008E7010008E7010008E0
:10006000E7010008E7010008E7010008E7010008D0
:10007000E7010008E7010008E7010008E7010008C0
:10008000E7010008E7010008E7010008E7010008B0
:10009000E7010008E7010008E7010008E7010008A0
:1000A000E7010008E7010008E7010008E701000890
:1000B000E7010008E7010008E7010008E701000880
:1000C000E7010008E7010008E7010008E701000870
:1000D000E7010008E7010008E7010008E701000860
:1000E000E7010008E7010008E7010008E701000850
:1000F000E7010008E7010008E7010008E701000840
:10010000E7010008E7010008E7010008E70100082F
:10011000E7010008E7010008E7010008E70100081F
:10012000E7010008E7010008E7010008E70100080F
:1001300000F002F800F03AF80AA090E8000C8244BF
:100140008344AAF10107DA4501D100F02FF8AFF29C
:10015000090EBAE80F0013F0010F18BFFB1A43F0A5
:1001600001031847C80C0000E80C0000103A24BF37
:1001700078C878C1FAD8520724BF30C830C144BF0C
:1001800004680C607047000000230024002500264E
:10019000103A28BF78C1FBD8520728BF30C148BFEA
:1001A0000B6070471FB51FBD10B510BD00F031F8D2
:1001B0001146FFF7F7FF00F01BFB00F04FF803B408
:1001C000FFF7F2FF03BC00F053F800000948804736
:1001D00009480047FEE7FEE7FEE7FEE7FEE7FEE729
:1001E000FEE7FEE7FEE7FEE704480549054A064B41
:1001F000704700000906000831010008680000206F
:1002000068060020680200206802002070477047DE
:100210007047754600F028F8AE460500694653461B
:1002200020F00700854618B020B5FFF7DDFFBDE8D8
:1002300020404FF000064FF000074FF000084FF04D
:10024000000B21F00701AC46ACE8C009ACE8C009DE
:10025000ACE8C009ACE8C0098D4670470446AFF36E
:1002600000802046FFF7ABFF0048704704000020E5
:1002700001491820ABBEFEE726000200704700BF10
:10028000FEE7704700B5034603E04FF47A7000F0D4
:1002900005F81800A3F10103F7D100BD00EBC00180
:1002A000C9004FF0E02251610021916105211161E7
:1002B00000BF4FF0E021096901F480310029F8D036
:1002C00004214FF0E022116170472DE9F041024610
:1002D00000250026002000230024002791F803C0F9
:1002E0000CF00F0591F803C00CF0100CBCF1000FDE
:1002F00003D091F802C04CEA050591F800C0BCF1AA
:10030000000F31D0146800202BE04FF0010C0CFAE4
:1003100000F3B1F800C00CEA03069E4220D183002E
:100320004FF00F0C0CFA03F7BC4305FA03FC4CEA40
:10033000040491F803C0BCF1280F06D14FF0010C62
:100340000CFA00FCC2F814C00AE091F803C0BCF13A
:10035000480F05D14FF0010C0CFA00FCC2F810C098
:10036000401C0828D1D31460B1F800C0BCF1FF0FC5
:1003700034DD546800202EE000F1080C4FF0010835
:1003800008FA0CF3B1F800C00CEA03069E4221D132
:1003900083004FF00F0C0CFA03F7BC4305FA03FC83
:1003A0004CEA040491F803C0BCF1280F05D100F118
:1003B000080C08FA0CF8C2F8148091F803C0BCF1DC
:1003C000480F07D100F1080C4FF0010808FA0CF8AB
:1003D000C2F81080401C0828CED35460BDE8F081DC
:1003E00000BFFEE700BFFEE77047000000B589B020
:1003F0000121042000F050F80121082000F05CF8F1
:1004000018208DF823008020ADF8200003208DF8FF
:10041000220008A91848FFF758FF184800F030F9E3
:100420000020ADF81A00ADF8160044F61F60ADF8D4
:1004300018004720ADF8140000208DF81C0005A915
:100440000E4800F081F901A800F072F96020ADF8C3
:1004500004000020ADF80C000120ADF806000020DB
:10046000ADF80A0001A9054800F010F90121034880
:1004700000F0FAF809B000BD000C0140000800408F
:1004800010B504462146024800F05CF910BD00009A
:10049000000800407047000029B1064AD2690243B3
:1004A000044BDA6104E0034AD2698243014BDA610A
:1004B000704700000010024029B1064A92690243C9
:1004C000044B9A6104E0034A92698243014B9A61AA
:1004D0007047000000100240704710B5FFF786FF1C
:1004E00010BD00002DE9F04104460A49204600F005
:1004F00013FA8046084900F025FB0746064900F03C
:100500009DF9064600F0CAFA85B22846FFF7B8FF03
:10051000BDE8F081000034420000FA4310B500F05D
:1005200001F810BD0CB50020019000903348006820
:1005300040F480303149086000BF3048006800F462
:10054000003000900198401C0190009818B9019863
:10055000B0F5A06FF1D12948006800F4003010B167
:100560000120009001E0002000900098012843D174
:100570002348006840F010002149086008460068E0
:1005800020F0030008600846006840F002000860A0
:100590001A4840681949486008464068486008465B
:1005A000406840F4806048600846406820F47C1051
:1005B00048600846406840F4E81048600846006813
:1005C00040F08070086000BF0C48006800F00070C8
:1005D0000028F9D00948406820F003000749486026
:1005E0000846406840F00200486000BF0348406889
:1005F00000F00C000828F9D10CBD000000100240EA
:10060000002002407047000010B51348006840F019
:1006100001001149086008464068104908400E4929
:100620004860084600680E4908400B4908600846C3
:10063000006820F4802008600846406820F4FE002E
:1006400048604FF41F008860FFF768FF4FF00060BC
:100650000449086010BD0000001002400000FFF8CF
:10066000FFFFF6FE08ED00E021B1028842F0010232
:10067000028004E002884FF6FE731A400280704741
:1006800001894FF6F87211400181704770B500245E
:1006900000220023058C4FF6EF7635400584028C4E
:1006A0008388048B48F6FF752C404FF6FF452C409D
:1006B0000D884FF6FF7606EA05252C434FF6DF75C9
:1006C0002A400D8906EA05152A434D8806EA0515D4
:1006D0002A43154DA84202D0144DA8421DD14FF611
:1006E0007F752A404D894FF6FF7606EA05152A43A5
:1006F0004FF6BF752A408D8806EA05152A434FF646
:10070000FF352B404FF2FF752B408D8906EA85059A
:100710002B43CD8906EA85052B4383800483CD884E
:100720000587028470BD0000002C014000340140A8
:100730000021018041808180C180018141818181CE
:10074000C181704701877047002202881D4B984283
:100750000ED01D4B98420BD0B0F1804F08D01B4BF0
:10076000984205D01A4B984202D01A4B984204D1B5
:100770004FF68F731A404B881A43174B984207D095
:10078000164B984204D04FF6FF431A40CB881A43C9
:1007900002808B8883850B8803850A4B98420BD097
:1007A000094B984208D00E4B984205D00D4B984209
:1007B00002D00D4B984201D10B7A0386012383822C
:1007C00070470000002C014000340140000400404C
:1007D00000080040000C00400010004000140040E1
:1007E00000400140004401400048014000BFFEE7D6
:1007F000FFF773FE00200E490860086017E00D49FE
:100800000B48006800F01AF8094908600A490848CE
:10081000006800F063FA02D200200549086004482D
:100820000068FFF75FFE4FF4FA70FFF72BFDE6E775
:1008300000000020000034420000344390EA010F21
:1008400048BF81F0004100F18282421A3CBF801A09
:1008500089184FEAD0524FF07F4C1CEA410FA2EBAF
:10086000D15318BF9CEA026F00F03B804FF0004C60
:100870004CEA00204CEA012121FA03FC10EB0C0C9D
:100880001ED202F1FF325FEA1C2040EBC25038BF9B
:1008900070471CF07F0F4FEA400C18BFBCF17F4F30
:1008A00038BF7047C3F12003994008BF20F0010012
:1008B000BCF17F4F38BF7047A0F1C04000F009BACB
:1008C0004FEA3C00000A40EBC25028BF1CF0FF0F6B
:1008D0004FEA400CE6D018BFBCF17F4F38BF7047DD
:1008E000EAE79CEA026F05D010EA5C0F08BF00F04F
:1008F0000040704710B500F0A6F900BF64FBBE3E93
:10090000401058BFC0F14040491058BFC1F14041AC
:100910008142EFF3008070474FF47F0C1CEAD01245
:100920001EBF1CEAD11392EA0C0F93EA0C0F00F0E1
:10093000858090EA010F48BF42F4807240F4000CB9
:1009400041F400002CF07F4120F07F4000B581424F
:10095000A2EB03020FF2081CACEB504EC0F10000FA
:100960009EF800E04FEA4E0E00FB0EFC38BF490037
:100970004FEA2C1C02F5FA020CFB0EF34FEACE1ED6
:100980004FEA112C4FEAC1210EEB635E42EB22428B
:100990000EFB0CFC4FEA1C5300FB03114FEA112C19
:1009A0004FEA01310EFB0CFC4FEADC4C00FB0C1152
:1009B000C14228BF09184CEB03335DF804EB10EB80
:1009C000410143EBC250B2F57C0F38BF704729D5C7
:1009D00012F0F00F1CBF00F1C04000F00040704763
:1009E000008182838485868788898B8C8D8E8F9108
:1009F0009293959697999A9C9D9FA0A2A3A5A7A82C
:100A0000AAACAEB0B2B3B5B7B9BCBEC0C2C5C7C957
:100A1000CCCED1D4D7D9DCDFE2E6E9ECF0F3F7FABB
:100A2000FE0000004FEA400C0CF1807CBCF17E4FD0
:100A300028BF7047B0F1C04000F04BB990EA010FF9
:100A40000CEAD11348BF42F48072624538BF634557
:100A500007D213F47F0F16D080EA010000F00040A7
:100A6000704710B500F0EFF8097EFC3E00F005B8C5
:100A700080EA010000F00040704780EA010000F0C9
:100A8000004000F026B912F47F0F04BF02487047FF
:100A900080EA010000F01DB90000C07FC10DD1F156
:100AA0009E0206DB4FEA002343F0004323FA02F0E4
:100AB0007047004207D54FEA4001B1F1FE4F02D224
:100AC0004FF00000704710B500F0BDF84992248047
:100AD000002070476FEA20007047000050EA010CC8
:100AE00000F113801CF5000F58BFBCF5000F01D4B6
:100AF0008842704707D710F5000F58BF11F5000F57
:100B000015D488427047894270471CF5000F04D500
:100B1000BCF5000FF7D5814270474FF0807C1CEB8D
:100B2000400F38BF1CEB410F01D28142704710B516
:100B300000F089F8922449004FF000504FF08051A6
:100B4000FFF7DEBE4FF47F0C1CEAD0121EBF1CEA7A
:100B5000D11392EA0C0F93EA0C0F00F0478090EA51
:100B6000010F48BF42F480724FF0004C4CEA002065
:100B70004CEA012102EB0302A0FB0113A2F50002E3
:100B8000002918BF43F001035B0028BF4FEA33037D
:100B900042EB22425FEA132C4CEBC2502EBFBCEB5F
:100BA000436FB2F57C0F70474FEA036CBCF1004F06
:100BB00008BF20F00100B2F57C0F38BF70470BD59D
:100BC00082F0FF0212F5803FC8BF704700F1C040BD
:100BD000D8BF00F00040704700F5000C5FEA4C0CF5
:100BE00048BF7047B0F1C04000F073B890EA010F01
:100BF0000CEAD11348BF42F48072624538BF6345A6
:100C000004D280EA010000F00040704710B500F007
:100C10001AF800BF8900013E00F007B800F009B8DB
:100C20005FEA410C5FEA1C6C08D080EA010000F02A
:100C300050B85FEA400C5FEA1C6CF6D14FF0004000
:100C4000A0F5800070470EF1020E2EF0030E5EF844
:100C5000044B244204D44FEA4102B2F17F4F11D831
:100C60004FEA4003B3F17F4F0CD80ED14FEAD07C4E
:100C7000B2F17F4F0CEB4C0C0CF1020C08BF4CEBAB
:100C8000D17C04E04FF0080C01E04FEAD17C0CEB82
:100C90004C0324FA03F404F00704B4F1040C06D264
:100CA0000EEB840CBDE810404CF0010C6047DFE80F
:100CB0000CF0070802024FF00040A0F5800010BDC4
:100CC0000846420018BFD2F1807288BF00F0004091
:100CD00010BDFF2141EAD050C005704751EA000C19
:100CE00000F113801CF5000F58BFBCF5000F01D4B4
:100CF0008142704707D711F5000F58BF10F5000F5C
:100D000015D481427047894270471CF5000F04D505
:100D1000BCF5000FF7D5884270474FF0807C1CEB84
:100D2000410F38BF1CEB400F01D28842704780EA68
:100D3000010081EA000180EA0100FFF7F8BE00002F
:100D400090EA010F48BF81F000413FF57EAD421AA5
:100D500004D882F00042A0EB020011444FEAD052C6
:100D60004FF07F4C1CEA410FA2EBD15318BF9CEA15
:100D7000026F4AD04FF0004C4CEA00204CEA0121AF
:100D800021FA03FCB0EB0C0C0FD412F0FE0F36D09E
:100D90005FEA4C001DD5001240EBC25038BF7047CF
:100DA0001CF03F0F18BF70470BE0A2F101025FEA91
:100DB0001C2040EBC25038BF70471CF07F0F18BF9B
:100DC0007047C3F12003994014BF401E20F001007A
:100DD000704780084FEA122308BF7047B0FA80FCC2
:100DE000A2EB0C02CCF1280C60FA0CF093EA122F63
:100DF00004BF00EBC25070474FEAC3707047130A3C
:100E00005FEADC1008BF7047F6E79CEA026F04D087
:100E100010EA5C0F08BF0020704710B5FFF713FF02
:100E200040DFF63E81F00040704700004C0E0008A5
:100E300000000020040000006C010008500E0008B3
:100E40000400002064060000880100080000000083
:0400000508000131BD
:00000001FF
