:020000040800F2
:1000000060060020B1010008D5030008CD030008F8
:10001000D103000863020008650900080000000021
:1000200000000000000000000000000019040008AB
:100030006702000800000000D7030008BD050008A3
:10004000CB010008CB010008CB010008CB01000860
:10005000CB010008CB010008CB010008CB01000850
:10006000CB010008CB010008CB010008CB01000840
:10007000CB010008CB010008CB010008CB01000830
:10008000CB010008CB010008CB010008CB01000820
:10009000CB010008CB010008CB010008CB01000810
:1000A000CB010008CB010008CB010008CB01000800
:1000B000CB010008CB010008CB010008CB010008F0
:1000C000CB010008CB010008CB010008CB010008E0
:1000D000CB010008CB010008CB010008CB010008D0
:1000E000CB010008CB010008CB010008CB010008C0
:1000F000CB010008CB010008CB010008CB010008B0
:10010000CB010008CB010008CB010008CB0100089F
:10011000CB010008CB010008CB010008CB0100088F
:10012000CB010008CB010008CB010008CB0100087F
:1001300000F002F800F02CF80AA090E8000C8244CD
:100140008344AAF10107DA4501D100F021F8AFF2AA
:10015000090EBAE80F0013F0010F18BFFB1A43F0A5
:1001600001031847400E0000500E00000023002439
:1001700000250026103A28BF78C1FBD8520728BFB7
:1001800030C148BF0B6070471FB51FBD10B510BD13
:1001900000F031F81146FFF7F7FF00F011FC00F016
:1001A0004FF803B4FFF7F2FF03BC00F053F8000070
:1001B0000948804709480047FEE7FEE7FEE7FEE7FB
:1001C000FEE7FEE7FEE7FEE7FEE7FEE70448054937
:1001D000054A064B70470000C105000831010008C0
:1001E0006000002060060020600200206002002005
:1001F000704770477047754600F028F8AE46050016
:100200006946534620F00700854618B020B5FFF731
:10021000DDFFBDE820404FF000064FF000074FF033
:1002200000084FF0000B21F00701AC46ACE8C00914
:10023000ACE8C009ACE8C009ACE8C0098D4670471D
:100240000446AFF300802046FFF7ABFF004870473D
:100250000000002001491820ABBEFEE72600020086
:10026000704700BFFEE7704700B5034603E04FF458
:100270007A7000F005F81800A3F10103F7D100BD72
:1002800000EBC001C9004FF0E022516100219161F3
:100290000521116100BF4FF0E021096901F48031AF
:1002A0000029F8D004214FF0E022116170472DE9B8
:1002B000F0410246002500260020002300240027EC
:1002C00091F803C00CF00F0591F803C00CF0100C6E
:1002D000BCF1000F03D091F802C04CEA050591F87B
:1002E00000C0BCF1000F31D0146800202BE04FF0AB
:1002F000010C0CFA00F3B1F800C00CEA03069E42B0
:1003000020D183004FF00F0C0CFA03F7BC4305FA21
:1003100003FC4CEA040491F803C0BCF1280F06D199
:100320004FF0010C0CFA00FCC2F814C00AE091F87E
:1003300003C0BCF1480F05D14FF0010C0CFA00FCD2
:10034000C2F810C0401C0828D1D31460B1F800C016
:10035000BCF1FF0F34DD546800202EE000F1080CE2
:100360004FF0010808FA0CF3B1F800C00CEA0306DC
:100370009E4221D183004FF00F0C0CFA03F7BC43CF
:1003800005FA03FC4CEA040491F803C0BCF1280F01
:1003900005D100F1080C08FA0CF8C2F8148091F8A5
:1003A00003C0BCF1480F07D100F1080C4FF0010861
:1003B00008FA0CF8C2F81080401C0828CED354600C
:1003C000BDE8F081416170470161704700BFFEE701
:1003D00000BFFEE77047704729B1064AD269024361
:1003E000044BDA6104E0034AD2698243014BDA61CB
:1003F000704700000010024029B1064A926902438A
:10040000044B9A6104E0034A92698243014B9A616A
:100410007047000000100240704700002DE9FC47C3
:1004200082460C46642C00DB642414F1640F01DC6A
:100430006FF06304204600F0AAFB21F0004107465C
:1004400000221F4B00F0BAFB054600221D4B00F0B6
:10045000B3FCCDE9000100F06BFB0FFA80F9BAF1B3
:10046000000F03D0BAF1010F26D112E01FFA89F173
:10047000154800F020FA002C04DD10211348FFF786
:10048000A1FF05E0002C03DA10211048FFF79CFFC4
:1004900012E01FFA89F10C4800F00FFA002C04DD7D
:1004A00080210B48FFF790FF05E0002C03DA802144
:1004B0000748FFF787FF00BF00BFBDE8FC870000CB
:1004C000000052400021BC400008004000080140EC
:1004D000000C014010B500F001F810BD0CB5002073
:1004E000019000903348006840F480303149086042
:1004F00000BF3048006800F4003000900198401CB4
:100500000190009818B90198B0F5A06FF1D1294871
:10051000006800F4003010B10120009001E00020DC
:1005200000900098012843D12348006840F0100053
:10053000214908600846006820F00300086008466A
:10054000006840F0020008601A4840681949486095
:100550000846406848600846406840F4806048604B
:100560000846406820F47C1048600846406840F423
:10057000E81048600846006840F08070086000BFDE
:100580000C48006800F000700028F9D00948406865
:1005900020F00300074948600846406840F0020028
:1005A000486000BF0348406800F00C000828F9D1FB
:1005B0000CBD000000100240002002407047000007
:1005C00010B51348006840F0010011490860084662
:1005D0004068104908400E494860084600680E49C6
:1005E00008400B4908600846006820F48020086035
:1005F0000846406820F4FE0048604FF41F00886001
:10060000FFF768FF4FF000600449086010BD00006C
:10061000001002400000FFF8FFFFF6FE08ED00E0CA
:1006200030B589B005460C4601210420FFF7D4FE01
:1006300001210C20FFF7E0FE8020ADF8040003202C
:100640008DF8060010208DF8070001A93048FFF74B
:100650002EFE4FF48070ADF8040003208DF80600E4
:1006600018208DF8070001A92948FFF720FE102067
:10067000ADF8040003208DF8060010208DF8070067
:1006800001A92448FFF713FE4FF40070ADF80400F1
:1006900003208DF8060018208DF8070001A91C48DA
:1006A000FFF705FEADF81C50ADF818400020ADF87E
:1006B0001E00ADF81A0006A9174800F001F97020D5
:1006C000ADF808000120ADF80A000020ADF80E00DA
:1006D000ADF8100002A9104800F048F802A90E4831
:1006E00000F09EF801210C4800F030F808210A487B
:1006F00000F08CF80821084800F0D0F801210648E5
:1007000000F00CF80121044800F014F809B030BDE5
:10071000000C0140000801400008004021B102889F
:1007200042F08002028004E002884FF67F731A4094
:100730000280704721B1028842F00102028004E089
:1007400002884FF6FE731A400280704731B1B0F84C
:10075000442042F40042A0F8442005E0B0F84420D0
:10076000C2F30E02A0F844207047000070B50024C8
:1007700000220023058C4FF6FF6635400584028C6D
:100780008388848B4FF68F752C404FF6FC752C4078
:100790000D882C434FF6FF552A400D894FF6FF7602
:1007A00006EA05252A434D8806EA05252A43154D04
:1007B000A84202D0144DA8421DD14FF2FF752A4025
:1007C0004D894FF6FF7606EA05252A434FF6FF3599
:1007D0002A408D8806EA05252A434EF6FF752B40F0
:1007E0004DF6FF752B408D8906EA05152B43CD8903
:1007F00006EA05152B4383808483CD888587028490
:1008000070BD0000002C0140003401400A46002168
:10081000818B4FF6F77319401143818370470000B5
:1008200070B5002200230024058C4EF6FF7635407B
:100830000584038C8488828B48F6FF752A404FF626
:10084000FF452A400D884FF6FF7606EA05252A4324
:100850004DF6FF752B400D8906EA05352B434D8873
:1008600006EA05352B430B4DA84202D00A4DA8429B
:1008700008D14BF6FF752C408D894FF6FF7606EABE
:1008800085152C4384808283CD88A0F84050038452
:1008900070BD0000002C0140003401400A460021D8
:1008A000818B4FF2FF7319404FF6FF7303EA022367
:1008B00019438183704781877047A0F840107047C3
:1008C000002202881D4B98420ED01D4B98420BD03F
:1008D000B0F1804F08D01B4B984205D01A4B98427C
:1008E00002D01A4B984204D14FF68F731A404B88AE
:1008F0001A43174B984207D0164B984204D04FF634
:10090000FF431A40CB881A4302808B8883850B886B
:1009100003850A4B98420BD0094B984208D00E4BE6
:10092000984205D00D4B984202D00D4B984201D110
:100930000B7A03860123838270470000002C01405C
:10094000003401400004004000080040000C00405A
:1009500000100040001400400040014000440140ED
:100960000048014000BFFEE770B504460D466042F6
:1009700046B231460120FFF751FD21460020FFF726
:100980004DFD2846FFF770FC70BD000010B5044611
:1009900000210120FFF742FD00210846FFF73EFD40
:1009A00010210548FFF70EFD80210448FFF70AFDDE
:1009B0002046FFF759FC10BD00080140000C014023
:1009C000002141F61F40FFF72BFE08E04FF4FA71BB
:1009D0003220FFF7C9FF4FF47A70FFF7D7FFF5E732
:1009E00010B591EA030F48BF83F0004300F1F8818E
:1009F000841A71EB030C05D2121943EB0C03001B94
:100A000061EB0C01DFF824E14FEA1154A4EB135C15
:100A10001EEA430F18BF9EEA445F73D023EA0E0319
:100A2000DCF1200E21EA045143F4801332D322FA80
:100A30000CFE10EB0E0023FA0CFE41EB0E01CCF184
:100A4000200E03FA0EFE10EB0E0051F10001B1F57D
:100A5000801FCCF1200E32D201EB045112FA0EF2BB
:100A6000BDE8104058BF7047401C38BF5FEA4202E3
:100A700018BF7047002814BF20F0010041F10001A9
:100A80004FEA410313F5001F38BF7047A1F1C04181
:100A900000F08CB9012A43EB0302ACF1200CDCF12D
:100AA0001F0E32BF4FF0000E23FA0CF310EB0300C1
:100AB00041EB0451B4EB115FD0D0A1EB045101F52F
:100AC000801149085FEA300001EB04510ED350F168
:100AD000000038BF12FA0EFE08D1BDE81040C9E789
:100AE000401C38BF5FEA4202CAD1C3E7BDE81040EC
:100AF0004FEA410313F5001F38BF7047A1F1C04111
:100B000000F054B99EEA445F08D011EA5E0FBDE8D8
:100B1000104004BF01F0004100207047BDE81040C4
:100B200070B500F0F5F800BF64FBBE3E0000E0FFCA
:100B30004FEA41034FEA5353A3F58063D3F11E03F9
:100B4000C8BFD3F1210C0CDD4FF0004242EAC122B4
:100B500042EA505232FA03FC8CEAE17CACEBE170E1
:100B60007047102BC4BF0020704703F5787CBCF1A0
:100B7000FF3F04D06FF0004282EA2100704770B559
:100B800000F0C6F84992248000207047F2E710F088
:100B9000004248BF4042B0FA80F310FA03F10AD095
:100BA000C3F11D0303F580634FEA415002EB03528A
:100BB00002EBD12170474FF000007047DFF848C1C9
:100BC00070B51CEA111E1EBF1CEA13159EEA0C0F1D
:100BD00095EA0C0F00F06F8081EA030423EA4C13BE
:100BE0004EEAD47E21EA4C1141F4801143F4801383
:100BF000AE44A1FB024CA0FB0365AEF17F7E36192B
:100C000055EB0C05A1FB034C4CF10003A0FB021CAF
:100C100016EB0C06654153F10003094218BF46F07C
:100C2000010613F4007F0BD14FEA03314FEA053080
:100C3000340341EA155140EA16506FF003020AE00E
:100C40004FEAC3214FEAC520F40241EA555140EA78
:100C500056506FF0020202EB2E4201EB025585EA7C
:100C6000CE710AD05FEA440C18BF24F0004450F162
:100C7000000041F1000120EAD47040F2FE7C6245A0
:100C800000D270BDA84214BF4FF080444FF04044E2
:100C9000002E08BF0024BEF1806FA8BFA1F1C041A3
:100CA000BDE8704080F282804FF0000001F1C04149
:100CB00001F0004170479EEA0C0F0CEA131518BFB3
:100CC00095EA0C0F06D04FF0000081EA030E0EF0FB
:100CD000004170BD00F01CF88900013E00F007B82B
:100CE00000F009B84FEA430C5FEA5C5C08D081EA87
:100CF000030100F05BB84FEA410C5FEA5C5CF6D19F
:100D00004FF00000014970470000FF070000F87F26
:100D10000EF1020E2EF0030E5EF8046B364205D47F
:100D2000012A43EB030515F5001F12D8012841EBFA
:100D3000010C1CF5001F0CD80ED14FEAD17C15F523
:100D4000001F0CEB4C0C0CF1020C08BF4CEBD37CDD
:100D500004E04FF0080C01E04FEAD37C0CEB4C05AB
:100D600026FA05F606F00706B6F1040C06D20EEBDD
:100D7000860CBDE870404CF0010C6047DFE80CF0D9
:100D8000090B02024FF000414FF00000A1F50021D5
:100D900070BD19461046012851EB010418BFD4F567
:100DA000001484BF002001F0004170BD0808A0F5C8
:100DB00000114FEA3101704791EA030F10B581F03D
:100DC00000413FF515AE83F0004300F009B8000084
:100DD00010B591EA030F48BF83F000433FF508AE1A
:100DE000841A71EB030C07D212198CF0004C43EB00
:100DF0000C03001B61EB0C01DFF8A4E14FEA115476
:100E0000A4EB135C1EEA430F18BF9EEA445F00F098
:100E1000B08023EA6E03524221EA0451C3EB6E0311
:100E200038BF5B1EDCF1200E25D322FA0CFE10EB3E
:100E30000E0043FA0CFE41EB0E01CCF1200E03FA3A
:100E40000EFE10EB0E0051F10001CCF1200E29D462
:100E500012FA0EF201EB0451BDE8104058BF704782
:100E6000401C1CBFB2F1004F704700280CBF491C4A
:100E700020F00100704712EB020E43EB030218BF93
:100E80004FF0010E4EEA4202ACF1200CDCF11E0ED6
:100E900054D943FA0CFE10EB0E0051F1FF31CCF1A6
:100EA0001E0ED5D50EF1010E12FA0EFE404141EB99
:100EB000010101EB445C5FEA5C5C10D910EBDE7071
:100EC00001EB045138BFBEF1004FBDE8104018BF20
:100ED000704700280CBF491C20F00100704730D239
:100EE0004FEAD42C11F5001124F400641BD0B1FAA0
:100EF00081F20B3AA41AA41ED2F12003914030FAD9
:100F000003F31943904001EBCC71002C01EB045129
:100F1000BDE81040A8BF704701F1C0414FF000008C
:100F200001F000417047B0FA80F310FA03F100D1EC
:100F300010BDE41A173C4805C90AE4E701EB045167
:100F400010BD491001EB0451BDE810404FEA3000DC
:100F500002E04FF0000170474A0008BF0042F8D09D
:100F6000B2F5001F28BF704701F000414FF00000AC
:100F700070479EEA445F07D011EA5E0FBDE810405B
:100F800004BF002100207047BDE8104070B5FFF796
:100F9000BFFE00BF40DFF63E83F0004110467047C1
:100FA0000000E0FFB40F0008000000206006000011
:040FB0006C010008C8
:0400000508000131BD
:00000001FF
